:10000000F4C5000023C6000021C600001FC6000082
:100010001DC600001BC6000019C6000017C6000060
:1000200015C600000C94E6180C94E6180C94E6181B
:100030000DC600000BC6000009C6000007C6000080
:1000400005C6000003C6000001C60000FFC5000091
:10005000FDC50000FBC50000F9C500000C949C180C
:10006000F5C500000C9466180C943C18EFC5000010
:10007000EDC50000EBC50000E9C50000E7C50000C4
:10008000E5C50000E3C50000E1C50000DFC50000D4
:10009000DDC50000DBC50000D9C500000C94F018D8
:1000A000D5C50000D3C50000D1C50000CFC50000F4
:1000B000CDC50000CBC50000C9C50000C7C5000004
:1000C000C5C50000C3C50000C1C50000BFC5000014
:1000D000BDC50000BBC50000B9C50000B7C5000024
:1000E000B5C5000000000000003E5B4F5B3E3E6B6C
:1000F0004F6B3E1C3E7C3E1C183C7E3C181C577DC2
:10010000571C1C5E7F5E1C00183C1800FFE7C3E70D
:10011000FF0018241800FFE7DBE7FF30483A060E1F
:100120002629792926407F050507407F05253F5A66
:100130003CE73C5A7F3E1C1C08081C1C3E7F1422D6
:100140007F22145F5F005F5F06097F017F00668981
:10015000956A606060606094A2FFA29408047E04C7
:100160000810207E201008082A1C08081C2A0808ED
:100170001E101010100C1E0C1E0C30383E383006AD
:100180000E3E0E06000000000000005F00000007A9
:10019000000700147F147F14242A7F2A12231308D7
:1001A000646236495620500008070300001C2241B3
:1001B000000041221C002A1C7F1C2A08083E080857
:1001C0000080703000080808080800006060002007
:1001D000100804023E5149453E00427F40007249EA
:1001E0004949462141494D331814127F102745458E
:1001F00045393C4A494931412111090736494949A4
:1002000036464949291E0000140000004034000011
:10021000000814224114141414140041221408027A
:10022000015909063E415D594E7C1211127C7F49ED
:100230004949363E414141227F4141413E7F494942
:1002400049417F090909013E414151737F0808086E
:100250007F00417F41002040413F017F081422413F
:100260007F404040407F021C027F7F0408107F3E99
:100270004141413E7F090909063E4151215E7F0906
:10028000192946264949493203017F01033F40406D
:10029000403F1F2040201F3F4038403F6314081458
:1002A0006303047804036159494D43007F41414190
:1002B0000204081020004141417F04020102044071
:1002C00040404040000307080020545478407F28F5
:1002D0004444383844444428384444287F385454EB
:1002E000541800087E090218A4A49C787F0804040E
:1002F0007800447D40002040403D007F10284400AD
:1003000000417F40007C047804787C08040478383D
:1003100044444438FC1824241818242418FC7C086D
:10032000040408485454542404043F44243C4040EA
:10033000207C1C2040201C3C4030403C442810289D
:10034000444C9090907C4464544C440008364100E6
:100350000000770000004136080002010204023C60
:100360002623263C1EA1A161123A4040207A38542F
:1003700054555921555579412254547842215554A8
:10038000784020545579400C1E52721239555555FB
:1003900059395454545939555454580000457C41E6
:1003A0000002457D420001457C407D1211127DF026
:1003B000282528F07C545545002054547C547C0A50
:1003C000097F4932494949323A4444443A324A4819
:1003D00048303A4141217A3A42402078009DA0A01D
:1003E0007D3D4242423D3D4040403D3C24FF24246F
:1003F000487E4943662B2FFC2F2BFF0929F620C08E
:10040000887E090320545479410000447D413048DE
:10041000484A32384040227A007A0A0A727D0D1921
:10042000317D2629292F28262929292630484D4083
:1004300020380808080808080808382F10C8ACBA7F
:100440002F102834FA00007B000008142A142222FE
:10045000142A14085500550055AA55AA55AAFF5547
:10046000FF55FF000000FF00101010FF00141414CF
:10047000FF001010FF00FF1010F010F0141414FC17
:10048000001414F700FF0000FF00FF1414F404FC34
:10049000141417101F10101F101F1414141F001015
:1004A0001010F0000000001F101010101F1010108E
:1004B00010F010000000FF1010101010101010109D
:1004C000FF10000000FF140000FF00FF00001F10DD
:1004D000170000FC04F414141710171414F404F497
:1004E0000000FF00F714141414141414F700F71488
:1004F0001414171410101F101F141414F4141010D7
:10050000F010F000001F101F0000001F140000007A
:10051000FC140000F010F01010FF10FF141414FF72
:10052000141010101F00000000F010FFFFFFFFFF6D
:10053000F0F0F0F0F0FFFFFF0000000000FFFF0F01
:100540000F0F0F0F3844443844FC4A4A4A347E02A5
:10055000020606027E027E02635549416338444426
:100560003C04407E201E2006027E020299A5E7A5DB
:10057000991C2A492A1C4C7201724C304A4D4D304C
:100580003048784830BC625A463D3E494949007E71
:100590000101017E2A2A2A2A2A44445F4444405108
:1005A0004A444040444A51400000FF0103E080FFBC
:1005B000000008086B6B083612362436060F090F48
:1005C00006000018180000001010003040FF010164
:1005D000001F01011E00191D1712003C3C3C3C008D
:1005E00000000000000103070F1F3F7F0080C0E0F4
:1005F000F0F8FCFE00000A0B02090C0D0E080703C0
:1006000004010000000000000000000000000000E5
:1006100000000000000000000000000000000000DA
:100620001211100000000000000000000000000097
:100630000000000000000000000000002100240075
:1006400027002A002D0030003300010100000401C2
:1006500007010A01DB40A4A62EAF2000A1C8D300E9
:10066000408DAED580A800002200250028002B0078
:100670002E003100340002010000050108010B01C9
:10068000000060000000000000000000000000000A
:1006900000E0000000000000000000000000000179
:1006A000E00000000000000000000000000001F079
:1006B0000000000000000000000000000003F00047
:1006C00000000000000000000000000007F0000033
:1006D000000000000000000000000007F80000001B
:1006E000000000000000000000000FF80000000300
:1006F000C0007E000001E0007F0FF800000003C092
:1007000000FE000001E000FFEFF800000003C00061
:10071000FE000001E000FFFFF800000003C000F051
:100720000000000F007FFE7FC0000003C000F0004B
:1007300000000F003FFE7FF83FF1FBCFFCFEF3BC53
:100740003DEFE01FFE7FFF7FFBFFDFFEFEFFBC3DB6
:10075000EFE01FC6FFFF7FFBFFDFFEFEFFBC3DEFAC
:10076000E00FE3C7FE787BC3DE1EF0FFBC3DEF0069
:1007700007FF87FC787BC3DE1EF0F83C3DEF0001ED
:10078000FFFFF0007BC3C01EF0F03C3DEF0001F323
:100790007FE03FFBC3CFFEF0F03C3DEF0003E33FC3
:1007A000807FFBC3DFFEF0F03C3DEF0007E73C003D
:1007B000787BC3DE1EF0F03C3DEF0007FFBE007803
:1007C0007BC3DE1EF0F03C3DEF0007FFFE00787BB0
:1007D000C3DE1EF0F03C3DEF000FFFFE007FFBFF8D
:1007E000DFFEF0F03FFDEFE00FFFFF007FFBFFDFDC
:1007F000FEF0F03FFDEFE00FF9FF003E79F9CF9EEC
:10080000F0F01F3DE7E01FF1FF00000000000000D6
:1008100000000000001F80FF007FFFFFFFFFFFFFC1
:10082000FFFFFFE01C007F007FFFFFFFFEB46D882D
:100830008D18E000001F007FFFFFFFFE95AD7DB526
:1008400077E000000F007FFFFFFFFEA5AD9D8D1933
:10085000E0000006007FFFFFFFFEB5ADEDB57EE0D6
:100860000000000000018000000000000000000007
:10087000038000000000000000000007C00000002E
:1008800000000000000007C00000000000000000A1
:10089000000FC00000000000000000001FE000008A
:1008A000000000000000001FE00000000000000049
:1008B00000003FE00000000000000000003FF000EA
:1008C00000000000000000007FF0000000000000B9
:1008D000001FF87FF0000000000000003FFE7FF0E6
:1008E000000000000000003FFF7FF000000000005B
:1008F00000001FFFFBE0000000000000000FFFF9F8
:10090000FFC00000000000000FFFF9FFF80000002A
:1009100000000007FFF1FFFF00000000000003FCE3
:1009200073FFFF80000000000001FE3FFFFF80001A
:100930000000000000FF1E0FFF000000000000008C
:100940007FFE1FFC000000000000003FFFFFF800DA
:100950000000000000000FDFFFE0000000000000CA
:10096000001F19FFC0000000000000003F3CFF0016
:10097000000000000000007E7CF800000000000085
:1009800000007FFE7C0000000000000000FFFFFC74
:100990000000000000000000FFFFFE00000000005B
:1009A000000000FFFFFE0000000000000001FFEF5C
:1009B000FE0000000000000001FFCFFE000000006C
:1009C00000000003FF07FE0000000000000003FC21
:1009D00007FE0000000000000003F003FE0000001E
:1009E00000000000018000FE000000000000000088
:1009F00000007E000000000000000000003E00003B
:100A000000000000000000000C00000000000007D3
:100A10008000FC000003C0000000078001FC000013
:100A200003C0000000078001FC000003C0000000BC
:100A3000078001E00000001E000000078001E000C8
:100A400000001E007FE3F79FF9FDE7787BDFC0FF22
:100A5000F7FFBFFDFDFF787BDFC0FFF7FFBFFDFDA8
:100A6000FF787BDFC0F0F787BC3DE1FF787BDE00DD
:100A7000F0F787BC3DE1F0787BDE0000F787803D32
:100A8000E1E0787BDE007FF7879FFDE1E0787BDEA9
:100A900000FFF787BFFDE1E0787BDE00F0F787BC61
:100AA0003DE1E0787BDE00F0F787BC3DE1E0787B5C
:100AB000DE00F0F787BC3DE1E0787BDE00FFF7FF6A
:100AC000BFFDE1E07FFBDFC0FFF7FFBFFDE1E07F9F
:100AD000FBDFC07CF3F39F3DE1E03E7BCFC0000035
:100AE000000000000000000000FFFFFFFFFFFFFF0D
:100AF000FFFFFFC0FFFFFFFFFD68DB111A31C0FFE2
:100B0000FFFFFFFD2B5AFB6AEFC0FFFFFFFFFD4B0E
:100B10005B3B1A33C0FFFFFFFFFD6B5BDB6AFDC071
:100B20005353443133303620616C6C6F63617469A8
:100B30006F6E206661696C65640000002000230010
:100B4000260029002C002F003200000100000301C4
:100B50000601090105050505070508080808020240
:100B600002020A0A08080404040401010101010147
:100B700001010303030303030303040707070C0C2A
:100B80000C0C0C0C0C0C02020202060606060606F1
:100B900006060B0B0B0B0B0B0B0B01021020200896
:100BA00008102040102040800201020108040201C8
:100BB0000102040810204080804020100804020137
:100BC0008004020180402010080402010804020190
:100BD0000102040810204080010204081020408017
:100BE0002200FF210000591AC12211241FBECFEF9D
:100BF000D1E2DEBFCDBF00E00CBF14E0A0E0B2E068
:100C0000E0E9FCE400E00BBF02C007900D92A03CBD
:100C1000B107D9F726E0A0ECB4E001C01D92A53DD4
:100C2000B207E1F715E0C4EFD5E000E006C0219778
:100C30000109802FFE010E941324C33FD10780E0E9
:100C40000807A9F70E94261B0C943726D9C90895D6
:100C5000089508950895AF92BF92CF92DF92EF92D8
:100C6000FF920F931F93CF93DF936C017B018B0156
:100C7000040F151FEB015E01AE18BF08C017D107A6
:100C800059F06991D601ED91FC910190F081E02D30
:100C9000C6011995892B79F7C501DF91CF911F9175
:100CA0000F91FF90EF90DF90CF90BF90AF9008959D
:100CB000FC01538D448D252F30E0842F90E0821B62
:100CC000930B541710F0CF96089501970895FC01E7
:100CD000918D828D981761F0A28DAE0FBF2FB11D3F
:100CE0005D968C91928D9F5F9F73928F90E0089597
:100CF0008FEF9FEF0895FC01918D828D981731F051
:100D0000828DE80FF11D858D90E008958FEF9FEFA4
:100D10000895FC01918D228D892F90E0805C9F4F7A
:100D2000821B91098F73992708958EE895E0F1DF72
:100D300021E0892B09F420E0822F0895FC01A48D85
:100D4000A80FB92FB11DA35ABF4F2C91848D90E0ED
:100D500001968F739927848FA689B7892C93A089D0
:100D6000B1898C91837080648C93938D848D98135A
:100D700006C00288F389E02D80818F7D80830895ED
:100D8000EF92FF920F931F93CF93DF93EC0181E0DB
:100D9000888F9B8D8C8D98131AC0E889F989808182
:100DA00085FF15C09FB7F894EE89FF896083E889B5
:100DB000F98980818370806480839FBF81E090E0A7
:100DC000DF91CF911F910F91FF90EF900895F62E34
:100DD0000B8D10E00F5F1F4F0F731127E02E8C8DCE
:100DE0008E110BC00FB607FCFACFE889F989808114
:100DF00085FFF5CFCE01A2DFF2CFEB8DEC0FFD2FFB
:100E0000F11DE35AFF4FF0829FB7F8940B8FEA89E8
:100E1000FB8980818062D0CFCF93DF93EC01888DF6
:100E20008823B1F0AA89BB89E889F9898C9185FD6D
:100E300003C0808186FD0CC00FB607FCF7CF8C91F4
:100E400085FFF2CF808185FFEDCFCE0177DFEACF3E
:100E5000DF91CF91089580E090E0892B21F065DF4C
:100E600081110E94000080E090E0892B49F080E031
:100E700090E0892B29F00E94000081110E9400005F
:100E800080E090E0892B49F080E090E0892B29F008
:100E90000E94000081110E94000080E090E0892BF8
:100EA00049F080E090E0892B29F00E940000811138
:100EB0000C94000008958150823108F05AC0E82F48
:100EC000F0E08827E959F84F8F4F0C9413248707D7
:100ED0008B0779077F078307B9078E079407980761
:100EE0009E07A207A607AC07B007B907B407BA0761
:100EF000BE07809180008F77809380000895809155
:100F000080008F7DF9CF80918000877FF5CF84B5F9
:100F10008F7784BD089584B58F7DFBCF8091B0001D
:100F20008F778093B00008958091B0008F7DF9CFC6
:100F3000809190008F778093900008958091900029
:100F40008F7DF9CF80919000877FF5CF8091A000B1
:100F50008F778093A00008958091A0008F7DF9CFB6
:100F60008091A000877FF5CF809120018F778093BB
:100F700020010895809120018F7DF9CF809120017B
:100F8000877FF5CFCF93DF93282F30E0F901EC5026
:100F9000FA4F8491F901E656F44FD491F901EC5AD5
:100FA000F44FC491CC2399F0811185DFEC2FF0E050
:100FB000EE0FFF1FE65CF44FA591B491EC91ED2389
:100FC00081E090E009F480E0DF91CF91089580E026
:100FD00090E0FACF1F93CF93DF93282F30E0F901F1
:100FE000EC50FA4F8491F901E656F44FD491F9018F
:100FF000EC5AF44FC491CC23A1F0162F81115BDF82
:10100000EC2FF0E0EE0FFF1FEA59F94FA591B491D4
:101010008FB7F894EC91111108C0D095DE23DC93C2
:101020008FBFDF91CF911F910895DE2BF8CFCF9323
:10103000DF9390E0FC01E656F44F24918C5A944FD4
:10104000FC0184918823C9F090E0880F991FFC016E
:10105000E65CF94FA591B491FC01EA59F94FC591AD
:10106000D49161110DC09FB7F8948C912095822383
:101070008C938881282328839FBFDF91CF91089587
:10108000623051F49FB7F8943C91822F809583236E
:101090008C93E8812E2BEFCF8FB7F894EC912E2B09
:1010A0002C938FBFEACF3FB7F89480916E05909153
:1010B0006F05A0917005B091710526B5A89B05C07C
:1010C0002F3F19F00196A11DB11D3FBFBA2FA92FC7
:1010D000982F8827BC01CD01620F711D811D911DC4
:1010E00042E0660F771F881F991F4A95D1F7089530
:1010F0008F929F92AF92BF92CF92DF92EF92FF9228
:101100006B017C01D0DF4B015C01C114D104E1040F
:10111000F104B1F0C8DF681979098A099B09683EB2
:1011200073408105910588F321E0C21AD108E108D6
:10113000F10888EE880E83E0981EA11CB11CE5CF53
:10114000FF90EF90DF90CF90BF90AF909F908F90E7
:101150000895EF92FF920F931F93CF93DF93EC01CB
:10116000EC80FD806E157F050CF070C057FF04C049
:10117000240F351F50E040E08E819F81FA01E20F7D
:10118000F31F8E179F071CF49C01241B350B1216AE
:1011900013060CF05BC0922F842F8695869586955A
:1011A0008E9DD0018F9DB00D11246A0F7B1FAF8DD6
:1011B000B8A1A60FB71F477049F188E0841B482FDC
:1011C000682F70E0FB01E451FA4FE491281708F012
:1011D00063C0621B71092FEF30E002C0359527957F
:1011E0006A95E2F7E2230130110539F0B0F10230DF
:1011F000110561F58C91E82702C08C91E82BEC93E6
:10120000941720F12C813D81A20FB31FE92FE41B1D
:10121000E83078F00230110521F58E2F9C919095E1
:101220009C932C813D81A20FB31F88508830B0F76A
:10123000E770EE2359F0F0E0EC51FA4FE491013001
:101240001105F9F010F10230110519F1DF91CF917C
:101250001F910F91FF90EF900895E0958C91E823F6
:10126000CECF81E00115110509F480E081959E2F14
:101270008C932C813D81A20FB31F98509830C0F7FA
:10128000D7CF8C91E82BEC93E1CFE0958C91E823BC
:10129000FACF8C91E827F7CF0130110509F4ADCFD3
:1012A000E0F20230110509F4A5CFAE0DBF1DAECF9F
:1012B0000F931F93CF93DF9377FF04C0260F371F41
:1012C00070E060E0DC011496CD91DC91FB01E20F4F
:1012D000F31FCE17DF071CF49E01261B370B1216D7
:1012E00013064CF5FA0157FD3796A3E0F595E795FF
:1012F000AA95E1F7EC9FD001ED9FB00DFC9FB00DDA
:1013000011246A0F7B1FDC015F96ED91FC91E60FC3
:10131000F71F4770552781E090E001C0880F4A957C
:10132000EAF7482F0130110559F0A8F02E0F3F1FA2
:1013300002301105E1F0DF91CF911F910F910895D7
:101340002E0F3F1FE217F307B1F38191DF011197D1
:10135000842B8C93F7CF80952E0F3F1FE217F30756
:1013600051F39191DF01119798239C93F7CFE217E6
:10137000F30709F38191DF01119784278C93F7CF4D
:101380000F931F93FA01DC0156964C915697423009
:10139000E1F0433091F1413059F514964D915C9153
:1013A000DA01AE1BBF0BFD01E21BF30B77FD0AC098
:1013B000DC0116964D915C91641775071CF4AB0126
:1013C000BF0176DF1F910F91089514964D915C91A6
:1013D000DA01A61BB70BBD0161507109DC0116963D
:1013E0004D915C91DA01AE1BBF0BFD01E21BF30BCB
:1013F00077FDE8CFAF01ADDEE5CF16964D915C915C
:10140000DA01A61BB70BBD0161507109CFCF0F9355
:101410001F93FA01DC0156964C9156974230A1F089
:10142000433081F1413011F514964D915C91DA0110
:10143000AE1BBF0BFD013197F7FD03C0AB01BF0130
:1014400088DE1F910F91089514964D915C91DA01F9
:10145000A61BB70BBD01DC0116964D915C91DA011C
:10146000AE1BBF0BFD013197621B730BF7FDE9CF7C
:10147000DC0116964D915C91E417F50714F7AF0166
:1014800017DFDFCF16964D915C91DA01A61BB70BE3
:10149000BD01621B730BD0CFFC0177FD64C080855A
:1014A0009185681779070CF05EC057FD5CC0828596
:1014B0009385481759070CF056C086898230B1F0E1
:1014C000833029F1813041F484819581841B950B0F
:1014D000AB01BC01615071092130310509F108F4FB
:1014E00043C02230310509F463C008958481958199
:1014F000DC01A61BB70BBD01615071098681978184
:10150000DC01A41BB50BAD0141505109E5CF86812B
:101510009781861B970BBA01AC0141505109DCCF72
:10152000CA0157FD0796A3E095958795AA95E1F71F
:10153000A481B5818A9F90018B9F300D9A9F300DB9
:101540001124620F731F078CF0A1E02DE60FF71F27
:101550004770552721E030E001C0220F4A95EAF795
:101560008081822B80830895CA0157FD079633E05E
:10157000959587953A95E1F7A481B5818A9F900169
:101580008B9F300D9A9F300D1124620F731F078CB3
:10159000F0A1E02DE60FF71F4770552781E090E09E
:1015A00001C0880F4A95EAF7809590818923DACFA8
:1015B000CA0157FD079623E0959587952A95E1F78F
:1015C000A481B5818A9F90018B9F300D9A9F300D29
:1015D0001124620F731F078CF0A1E02DE60FF71F97
:1015E0004770552721E030E001C0220F4A95EAF705
:1015F00080818227B7CF08958EBD00000DB407FE0D
:10160000FDCF8EB508958CBD9DBD08950895FC0154
:101610006370668B8481958126813781613039F0D2
:10162000633029F091878087338722870895318737
:1016300020879387828708952F923F924F925F92DF
:101640006F927F928F929F92AF92BF92CF92DF92D2
:10165000EF92FF920F931F93CF93DF93CDB7DEB737
:101660006A970FB6F894DEBF0FBECDBF9A8F898FF1
:101670007A8369834A01D22E18870F833701BC2CE5
:10168000DC0159962D913C915A972115310509F0AD
:1016900015C118968D919C911997681779070CF0D0
:1016A000D7C11A968D919C91481759070CF0D0C15B
:1016B0004C2C512CB6E0CB9E600D711D11247C8703
:1016C0006B87161617060CF0C3C1EA2DF0E0FA87F7
:1016D000E98793E0EE0FFF1F9A95E1F7F88BEF870C
:1016E000CF01840F951F181619060CF0B1C1A98DF2
:1016F000BA8D58968C91811104C0BFEABD1508F4CB
:10170000D394A98DBA8DED91FC9111970284F38544
:10171000E02DCD011995B5E0DB9EC0011124E981D2
:10172000FA81FC83EB83312C212C9C012C513F4FFF
:10173000388F2F8B4A2D50E05E8B4D8BEF89F88DC3
:10174000E20DF31D44919E828D82D12CC12C6981C2
:101750007A81620D731D7A8B698B842F90E09C8B4C
:101760008B8BE98DFA8DA081B18140FF82C0F1E0C1
:10177000BF126FC0AF126DC01C96ED91FC912F810E
:101780003885A4014C0D5D1D69897A89898D9A8DF2
:101790001995EB89FC89F595E7954E2F5FEFC51AF2
:1017A000D50A6D817E818D899E89680F791F7E8320
:1017B0006D8398E0C916D10481F6AFEF2A1A3A0A70
:1017C000EB81FC81E40DF51DFC83EB83F5E02F1626
:1017D000310409F0B3CF2F81388526153705B9F0CC
:1017E000A98DBA8DED91FC91B1E0BB1257C0AB123F
:1017F00055C069817A816B5F7F4F0088F189E02D48
:10180000830128E030E0A401898D9A8D1995A98D76
:10181000BA8DED91FC9111970688F789E02DCD01E5
:101820006A960FB6F894DEBF0FBECDBFDF91CF91A1
:101830001F910F91FF90EF90DF90CF90BF90AF90EE
:101840009F908F907F906F905F904F903F902F90E0
:1018500019941E96ED91FC91EF80F88409851A8504
:1018600092014D815E816B817C81898D9A8D199564
:1018700090CF2F8138852615370509F48ACF31E0BE
:10188000B31207C0A31205C01C96ED91FC91930101
:1018900078CF1E96ED91FC917301E0CF6B857C852E
:1018A000641975090684F785E02D73010F85188981
:1018B0009201A401898D9A8D1995A9CFF9013496C9
:1018C0009491329745915491D91AB7E0DB9E400D1F
:1018D000511D1124F901259134913C8B2B8BFA0178
:1018E00025903490FA013296749031963491398B68
:1018F000329664903196449041E04C1518F04A15A8
:1019000008F07FC0662D062C000C770B7C836B8360
:10191000842D042C000C990B9E838D83A98DBA8D88
:10192000ED91FC9111970284F385E02DCD0119957D
:10193000512CD12CC12CEA2DF0E0FA87E9872B2D10
:1019400030E03C872B87A401440D511D47FC5A957C
:10195000588F4F8B69817A81660D711D67FC7A956E
:101960007E876D877989C71608F051CF2C2D30E01E
:101970004D815E81420F531FA985BA854A9FC001E0
:101980004B9F900D5A9F900D1124FC01E80DF91DFD
:10199000F88BEF87852D612C4F89588D420F531F8F
:1019A0005E8B4D8B671408F050C044244394480E5E
:1019B000877041F4C1010196EB89FC89E20DF31DAA
:1019C000D4901C01D7FE19C0A98DBA8DED91FC9160
:1019D000662D70E0B1E0BB1219C0AB1217C02D85A7
:1019E0003E85620F731F0484F585E02D2F813885B5
:1019F0004D895E89898D9A8D1995DD0C6394842DAE
:101A0000D1CF1E821D821C821B8288CF4B815C81BC
:101A1000640F751FAB85BC856A9FC0016B9F900DDD
:101A20007A9F900D112469817A81680F791F06844D
:101A3000F785E02DEF80F88409851A859D014F8593
:101A40005889898D9A8D1995D8CF570CC3948ACF10
:101A50006A960FB6F894DEBF0FBECDBFDF91CF916F
:101A60001F910F91FF90EF90DF90CF90BF90AF90BC
:101A70009F908F907F906F905F904F903F902F90AE
:101A800008958F929F92AF92CF92EF92FF920F9311
:101A90001F93CF93DF93EC01262F898D9A8D0097AA
:101AA00009F050C06A30D1F41D861C868D8948E04B
:101AB000849F900111248E859F85820F931F9F879D
:101AC0008E8781E090E0DF91CF911F910F91FF9081
:101AD000EF90CF90AF909F908F9008956D3089F3E5
:101AE000CC88AD888F898823C1F08C859D8536E0B0
:101AF000C39E800D911D11244885598548175907AB
:101B000064F44E855F851D861C8638E0A39EC00167
:101B10001124840F951F9F878E87EA88FB88088988
:101B200019894E855F856C857D85CE0185DD2C8983
:101B30008C859D8546E0249F800D911D11249D87F5
:101B40008C87BFCF6A3069F41D861C86FC013896ED
:101B5000E4912D898E859F85E29F800D911D112432
:101B6000AECF6D3009F4ADCFFC01349634916317DC
:101B700008F4A7CF3296E491E61708F4A2CFFC014F
:101B8000329685909490462F431B342F47E0349F24
:101B9000800C911C1124F401329634913196E49119
:101BA0003323A1F1EE2391F1CC88F4013596E49131
:101BB000AD884F89442301F10E2E000CFF0BE30F7B
:101BC000F11DCE9EA001CF9E500D11246C857D8508
:101BD000460F571F68857985641775076CF44E8525
:101BE0005F851D861C86FC013896E491AE9E400DF3
:101BF000511D11245F874E87EA88FB88088919895F
:101C00004E855F856C857D85CE0116DDF4013496A9
:101C1000E4912C898C859D85E29F800D911D112476
:101C20008ECF6F927F928F929F92AF92BF92CF9200
:101C3000DF92EF92FF920F931F93CF93DF93EC010C
:101C40006B015A0139014801E881F9810284F38569
:101C5000E02D1995E881F9810288F389E02D87014B
:101C60009301A501B601CE011995A501480D591D95
:101C700041505109E881F9810288F389E02D9301EF
:101C8000B601CE011995E881F9810088F189E02D2E
:101C90009401A501B601CE011995C60CD71CB60159
:101CA00061507109E881F9810088F189E02D940182
:101CB000A501CE011995E881F9810688F789E02D03
:101CC000CE01DF91CF911F910F91FF90EF90DF90A8
:101CD000CF90BF90AF909F908F907F906F9019940E
:101CE0006F927F928F929F92AF92BF92CF92DF922C
:101CF000EF92FF920F931F93CF93DF935C01EB0161
:101D00006A01490138018701DC01ED91FC916217FC
:101D1000730719F5641675062CF0962D872D3A0178
:101D2000C92ED82E9601261937092F5F3F4F048CF4
:101D3000F58DE02DA301BE01C5011995DF91CF916D
:101D40001F910F91FF90EF90DF90CF90BF90AF90D9
:101D50009F908F907F906F9008954615570591F44E
:101D60002617370724F0892D4B01C22FD82F9E014B
:101D7000281939092F5F3F4F068CF78DE02DA601FA
:101D8000B401DACF0284F385E02D1995D501ED91E8
:101D9000FC910488F589E02D83019401A601BE0120
:101DA000C5011995D501ED91FC910688F789E02DC3
:101DB000C501DF91CF911F910F91FF90EF90DF90C0
:101DC000CF90BF90AF909F908F907F906F9019941D
:101DD000EF92FF920F931F93DC011A960D911C91C5
:101DE0001B9718962D913C911997ED91FC9100A0AD
:101DF000F1A1E02D7B0150E040E070E060E019953A
:101E00001F910F91FF90EF9008954F925F926F9204
:101E10007F928F929F92AF92BF92CF92DF92EF927A
:101E2000FF920F931F93CF93DF936C012B015A0105
:101E300039014801DC01ED91FC910284F385E02D2C
:101E40001995E201640C751CD601ED91FC91C61543
:101E5000D7055CF40088F189E02D87019401A50184
:101E6000BE01C60119952196EFCF0688F789E02DAE
:101E7000C601DF91CF911F910F91FF90EF90DF90FE
:101E8000CF90BF90AF909F908F907F906F905F901A
:101E90004F9019948F929F92AF92BF92CF92DF9200
:101EA000EF92FF920F931F93CF93DF93EC015B01AF
:101EB0004A016901E881F9810284F385E02D1995D1
:101EC00095012C0D3D1D21503109E881F9810488CF
:101ED000F589E02D78018401A401B501CE011995A1
:101EE000E881F9810688F789E02DCE01DF91CF9155
:101EF0001F910F91FF90EF90DF90CF90BF90AF9028
:101F00009F908F9019948F929F92AF92BF92CF9291
:101F1000DF92EF92FF920F931F93CF93DF93EC0129
:101F20005B014A0169017801E881F9810284F38546
:101F3000E02D1995C80CD91C860101501109E881C2
:101F4000F9810488F589E02D9501A401B501CE0140
:101F50001995E881F9810688F789E02DCE01DF9196
:101F6000CF911F910F91FF90EF90DF90CF90BF9096
:101F7000AF909F908F901994EF92FF920F931F93C1
:101F8000DC01ED91FC9100A0F1A1E02D19951F91CC
:101F90000F91FF90EF9008950F931F93DC01ED9147
:101FA000FC91068CF78DE02D19951F910F910895E6
:101FB0000F931F93DC01ED91FC91048CF58DE02DC6
:101FC00019951F910F910895DC01ED91FC9100840A
:101FD000F185E02D19943F924F925F926F927F921C
:101FE0008F929F92AF92BF92CF92DF92EF92FF9229
:101FF0000F931F93CF93DF935C017B014A0169012B
:10200000390187E0680E711C93E0759467949A9586
:10201000E1F72B01400E511E10E000E0312CD0E022
:10202000C0E0CE0187709927330C892B59F4FE014B
:1020300083E0F595E7958A95E1F7E00FF11FE80D4C
:10204000F91D349037FE09C021E030E0A701B50149
:102050006C0F7D1F81E996E0B7DF2196CC16DD0677
:1020600001F78FEFE81AF80A060D171DE414F504BE
:10207000B1F6DF91CF911F910F91FF90EF90DF901C
:10208000CF90BF90AF909F908F907F906F905F9018
:102090004F903F9008952F923F924F925F926F9290
:1020A0007F928F929F92AF92BF92CF92DF92EF92E8
:1020B000FF920F931F93CF93DF9300D000D0CDB743
:1020C000DEB73C016A013E832D83FC82EB8258011E
:1020D000A41AB50AB7FE03C0B194A194B1088D80CB
:1020E0009E80861A970A97FE03C091948194910866
:1020F0008A149B045CF0902F812F0D811E819D839B
:102100008E839C2D8D2D6B01692F782F0C151D054D
:102110005CF09D818E817E836D83692F782F902F57
:10212000812F8601C92ED82E1601201A310A2B01C3
:102130002D813E81421A530A57FE03C051944194A7
:102140005108710137FE03C03FEFE31AF30AF5941B
:10215000E7948D819E81861797075CF5A1E0B0E03A
:10216000BA83A983C016D1064CF1D301ED91FC913D
:102170000484F585E02D2B813C81A8016D817E8151
:102180008A149B041CF04D815E81B801C30119952E
:10219000E418F508F7FE0AC02D813E8189819A81F5
:1021A000280F391F3E832D83E20CF31C0F5F1F4F56
:1021B000D9CF2FEF3FEF3A832983D4CF26960FB69E
:1021C000F894DEBF0FBECDBFDF91CF911F910F916D
:1021D000FF90EF90DF90CF90BF90AF909F908F9047
:1021E0007F906F905F904F903F902F90089585ED76
:1021F0008093BC008091BC0084FDFCCF10927905D7
:10220000089520912005260F3327331F21323105F1
:10221000ECF420917905FC0190E080E0243069F035
:1022200082E00895A09120052191AC0140505B4FC0
:10223000A40FB52FB11D2C930196861798F38091AA
:102240002005680F6093200580E0089581E00895DF
:10225000E0917B0580917A05E81730F4F0E0E052D8
:10226000FB4F808190E008958FEF9FEF089590914C
:102270007B0580917A052FEF3FEF981748F4E92FFF
:10228000F0E0E052FB4F208130E09F5F90937B05B0
:10229000C901089580917A0590917B05891B990B5E
:1022A0000895CF92DF92EF92FF920F931F93CF93F7
:1022B000DF937C01CB018A0120918D05222389F0D7
:1022C000EB016B01C40ED51ECC15DD0561F06991E3
:1022D000D701ED91FC910190F081E02DC701199596
:1022E000F3CF642F8EDFC801DF91CF911F910F9143
:1022F000FF90EF90DF90CF900895CF93DF931F92E0
:10230000CDB7DEB7698320918D052223F9F02091A6
:102310008A05203258F021E030E0FC01338322832B
:1023200090E080E00F90DF91CF91089580918B0530
:10233000E82FF0E0E054FB4F998190838F5F80930A
:102340008B0580938A0581E090E0ECCF61E0CE01BF
:10235000019657DFF8CF20918A0581E0213208F0FD
:1023600044C0809179058111FCCF80918C0592E069
:102370009093790591E0909378059FEF90934305B2
:102380001092650520936405A0ECB4E0E4E4F5E068
:1023900090E0291331C01092660590916605880F70
:1023A000892B8093660580917705813049F51092DD
:1023B0007705809166058093BB008091BC0083FD0A
:1023C000F8CF85EC8093BC00809179058230E1F3F1
:1023D000809143058F3FB1F0809143058032A1F099
:1023E00080914305803391F084E010928B05109228
:1023F0008A0510928D0508953D9131939F5FC9CF55
:1024000085EEE0CF80E0F1CF82E0EFCF83E0EDCF4B
:10241000EF92FF920F931F93CF93DF937C01C62F10
:102420008091AE069091AF06009709F457C02091B5
:10243000B20631E030938D0520938C0510928B0508
:1024400010928A05DC01ED91FC910190F081E02D64
:1024500060E019958701EE24E394F12CD1E0C1509E
:102460008091AE069091AF06CF3F89F1B0E2EB16B6
:10247000F104D0F070DF8091AE069091AF0620910C
:10248000B206D0938D0520938C0510928B05109287
:102490008A05DC01ED91FC910190F081E02D60E076
:1024A0001995EE24E394F12C8091AE069091AF063D
:1024B000F8016491DC01ED91FC910190F081E02D37
:1024C0001995BFEFEB1AFB0A0F5F1F4FC8CFDF91C3
:1024D000CF911F910F91FF90EF903DCFE091BE06FD
:1024E000F091BF0690818091C406809589238083F6
:1024F0008701C15008F437C0F80184912091AC06DF
:102500003091AD06232B21F077D80F5F1F4FF1CF0D
:1025100028E030E040E8E091BA06F091BB069091E7
:10252000C206582F5423D9F05081952B9083E09107
:10253000BC06F091BD0690815091C306952B908307
:10254000E091BC06F091BD0650819091C306909534
:1025500095239083469521503109E9F6D6CF5081D5
:1025600090959523E3CFDF91CF911F910F91FF902D
:10257000EF9008951F93CF93DF93EC018D8D9E8D87
:10258000009719F1162F29A131E030938D05209382
:102590008C0510928B0510928A05DC01ED91FC915F
:1025A0000190F081E02D60E019958D8D9E8DDC010C
:1025B000ED91FC910190F081E02D612F19958D8DA9
:1025C0009E8DDF91CF911F91C6CEADA5BEA59C91EA
:1025D0008BA9809589238C938B8D9C8D892B29F0D9
:1025E000862FDF91CF911F9107C828E030E080E867
:1025F000A9A5BAA599A9462F4823C1F04C91942BBF
:102600009C93ABA5BCA59C914AA9942B9C93ABA58C
:10261000BCA54C919AA9909594239C9386952150A2
:10262000310931F7DF91CF911F9108954C91909529
:102630009423E6CFDF92EF92FF920F931F93CF93F5
:10264000DF938091AE069091AF06892B09F495C077
:102650002091C6063091C7064091C8065091C90620
:1026600060E074E284EF90E00E94C02320513109C1
:102670004109510956954795379527952093B800FC
:1026800065E080EE9BE0C4DE60919506615081E9D3
:1026900096E070DF2091970630919806C901079661
:1026A00097FD079633E0959587953A95E1F7209148
:1026B000950630919606829F8001839F100D929F10
:1026C000100D1124C091B006D091B1068091AE06D4
:1026D0009091AF060C0F1D1F009709F48DC020913B
:1026E000B20631E030938D0520938C0510928B0556
:1026F00010928A05DC01ED91FC910190F081E02DB2
:1027000060E41995EE24E394F12CDD24D3948091B8
:10271000AE069091AF060C171D0709F445C0B0E254
:10272000EB16F104D0F017DE8091AE069091AF0663
:102730002091B206D0928D0520938C0510928B05C6
:1027400010928A05DC01ED91FC910190F081E02D61
:1027500060E41995EE24E394F12C8091AE069091FB
:10276000AF066991DC01ED91FC910190F081E02DC3
:102770001995BFEFEB1AFB0ACACF8091AC06909176
:10278000AD06892B31F08091CF069091D0060E9442
:10279000030BE091C006F091C10690818091C506BF
:1027A0008095892380836CCFD6DD8091AE06909191
:1027B000AF06892B09F461C02091CA063091CB067F
:1027C0004091CC065091CD0660E074E284EF90E039
:1027D0000E94C0232051310941095109569547955E
:1027E000379527952093B800DF91CF911F910F91D6
:1027F000FF90EF90DF900895E091BE06F091BF0644
:1028000080819091C406892B80830C171D0769F283
:1028100089912091AC063091AD06232B19F00E94CE
:10282000FC0AF3CF28E030E040E8E091BA06F091EE
:10283000BB069091C206582F5423D9F05081952B96
:102840009083E091BC06F091BD0690815091C30643
:10285000952B9083E091BC06F091BD06508190913C
:10286000C306909595239083469521503109E9F64A
:10287000CCCF508190959523E3CFE091C006F091A5
:10288000C10680819091C506892B8083ADCF1F93AF
:10289000CF93DF93EC01162F8D8D9E8D892BA9F19F
:1028A0002DA93EA94FA958AD60E074E284EF90E0F5
:1028B0000E94C0232051310941095109569547957D
:1028C000379527952093B80066EA111167EACE0183
:1028D00051DE8D8D9E8D892B41F129AD3AAD4BADE9
:1028E0005CAD60E074E284EF90E00E94C023205170
:1028F00031094109510956954795379527952093F8
:10290000B800DF91CF911F9108958B8D9C8D892BFD
:1029100021F08EAD9FAD0E94030BEFA5F8A9908129
:102920008CA9809589238083CFCFEFA5F8A98081DA
:102930009CA9892B8083E5CF90E080E008952091C9
:10294000970630919806C901079697FD079623E0F0
:10295000959587952A95E1F72091950630919606F1
:10296000829FA001839F500D929F500D112470E013
:1029700060E08091B0069091B1060C942926CF9327
:10298000DF93EC01DCDFE1E9F6E081E090E0938B9E
:10299000828B918B808B95878487978786874C81E4
:1029A0005D8168817981CF010E942B06DF91CF91F3
:1029B00041CE0F931F9390E0FC01E656F44F6491D3
:1029C000FC01EC5AF44FE491F0E0EE0FFF1FE65CDF
:1029D000F44F8591949100E412E42FE030E0462F0B
:1029E00023D5611571058105910529F06F5F7F4F32
:1029F0008F4F9F4F9F701F910F9108950E941C262B
:102A0000FB0101900020E9F73197AF01461B570BFE
:102A1000DC01ED91FC910280F381E02D1994BC0161
:102A200081E996E0EDCF8F929F92AF92BF92CF92C5
:102A3000DF92EF92FF920F931F93CF93DF93CDB767
:102A4000DEB7A1970FB6F894DEBF0FBECDBF6B0106
:102A50007C01F7FE41C06DE281E996E012D88C015D
:102A600022273327A9012C193D094E095F0919A214
:102A7000CE0181967C019AE0892E912CA12CB12C5B
:102A8000CA01B901A50194010E94C023605DF7014C
:102A900062937F01211531054105510589F790E0C9
:102AA00080E0309721F0BF0181E996E0A9DF800F37
:102AB000911FA1960FB6F894DEBF0FBECDBFDF9178
:102AC000CF911F910F91FF90EF90DF90CF90BF902B
:102AD000AF909F908F900895AC019B0119A28E0139
:102AE0000F5D1F4F8AE0C82ED12CE12CF12CCA01BA
:102AF000B901A70196010E94C023605DF8016293AD
:102B00008F01211531054105510589F790E080E0DD
:102B1000309779F2BF0181E996E072DFCACFCF9397
:102B2000DF93BC01990F880B990B7DDFEC016AE5FF
:102B300072E081E996E064DF8C0F9D1FDF91CF91F9
:102B400008950F931F93CF93DF938C01EB01FC014A
:102B5000808191810097E1F068817981611571052B
:102B6000A9F0428153812C813D814217530770F0B7
:102B70000E9430268C819D81F801958384831D827B
:102B80001C82DF91CF911F910F9108950E94B7246D
:102B900088819981F801918380838A819B819383C5
:102BA00082838C819D8195838483198218821B8204
:102BB0001A82E5CFFC0180819181009711F00C947D
:102BC000B72408950F931F93CF93DF93EC0188816F
:102BD0009981009759F02A813B812617370730F0F9
:102BE00081E0DF91CF911F910F9108958B016F5F6D
:102BF0007F4F0E944025009759F0998388831B835B
:102C00000A832C813D81232B59F7FC011082E8CFE8
:102C100080E0E7CFEF92FF920F931F93CF93DF9364
:102C2000EC017B01FB0101900020E9F731978F0156
:102C3000061B170BB801C6DF28813981811113C02B
:102C40002115310519F0C9010E94B7241982188293
:102C50001D821C821B821A82DF91CF911F910F91DE
:102C6000FF90EF9008951D830C83B701C901DF9198
:102C7000CF911F910F91FF90EF900C9430260F93FE
:102C80001F93CF93DF93CDB7DEB762970FB6F8945B
:102C9000DEBF0FBECDBF8C01CB01F80111821082C7
:102CA00013821282158214824AE0BE016F5F7F4F49
:102CB0000E940B23BE016F5F7F4FC801ABDF62969E
:102CC0000FB6F894DEBF0FBECDBFDF91CF911F913D
:102CD0000F910895CF93DF936DE572E089E496E05C
:102CE00099DF60E672E085E596E094DF64E672E0E5
:102CF0008FE496E08FDF68E672E081E696E08ADF97
:102D00006CE672E08BE596E085DF60E772E087E6CF
:102D100096E080DF61E087E00E94EA0761E086E0FC
:102D20000E94EA0761E084E00E94EA0761E085E032
:102D30000E94EA0780910002909101020497D9F461
:102D4000FEDDC1E0D0E0D093A406C093A306D093EB
:102D5000A206C093A106D0939E06C0939D06D09371
:102D6000A006C0939F0684E792E059DE63DCD0930F
:102D70000102C0930002DF91CF91089563E872E0F1
:102D800089E496E047DF61E087E00E94EA0760E0BF
:102D900086E00E94EA07809100029091010202976A
:102DA00061F568E672E081E696E034DF66E872E09D
:102DB0008BE596E02FDF6AE872E087E696E02ADF8F
:102DC000BEDD81E090E09093A4068093A3069093EB
:102DD000A2068093A10690939E0680939D069093F1
:102DE000A00680939F068EE892E019DE23DC83E044
:102DF00090E090930102809300020895CF93DF93B7
:102E000060E087E00E94EA0761E086E00E94EA074E
:102E100063E872E089E496E0FDDEC0910002D091A3
:102E20000102C130D10551F560EA72E081E696E019
:102E3000F1DE6CE672E08BE596E0ECDE6AE872E0CB
:102E400087E696E0E7DE7BDDD093A406C093A30679
:102E5000D093A206C093A106D0939E06C0939D0670
:102E6000D093A006C0939F0684EA92E0D8DDE2DB0F
:102E700082E090E090930102809300028091000232
:102E800090910102039761F560EA72E081E696E0B5
:102E9000C1DE6CE672E08BE596E0BCDE6AE872E0CB
:102EA00087E696E0B7DE4BDD81E090E09093A406E4
:102EB0008093A3069093A2068093A10690939E060A
:102EC00080939D069093A00680939F0684EA92E0EB
:102ED000A6DDB0DB84E090E09093010280930002D5
:102EE000DF91CF910895EF92FF920F931F93CF93AD
:102EF000DF9361E085E00E94EA0701E010E082E0F4
:102F0000E82EF12CC3E0D0E0809102029091030200
:102F1000039709F46FC061E085E00E94EA0760E072
:102F200084E00E94EA0766EB72E085E596E072DED7
:102F300064E672E08FE496E06DDE6AEB72E087E3B0
:102F400096E068DE5BDF8DE00E94C207892BE1F628
:102F50008DE00E94C207892BD9F3109303020093DE
:102F600002028BE00E94C207892B81F060E084E0BE
:102F70000E94EA0766EB72E085E596E04BDE64E6C8
:102F800072E08FE496E046DEF9DEEBCF8BE00E9444
:102F9000C207892BF1F48BE00E94C207892BD9F379
:102FA000F0920302E09202028CE00E94C207892B99
:102FB00081F060E084E00E94EA0766EB72E085E55C
:102FC00096E028DE64E672E08FE496E023DE16DF0A
:102FD000EBCF8CE00E94C207892B09F095CF8CE0E3
:102FE0000E94C207892BD9F3D0930302C093020237
:102FF00071DE8ACFDF91CF911F910F91FF90EF90FB
:103000000895EF92FF920F931F93CF93DF93EC01FC
:103010007B01198218821B821A821D821C82FB018D
:1030200001900020E9F731978F01061B170BB801BB
:10303000C9DD28813981811113C02115310519F0AD
:10304000C9010E94B724198218821D821C821B822A
:103050001A82DF91CF911F910F91FF90EF90089509
:103060001D830C83B701C901DF91CF911F910F918F
:10307000FF90EF900C9430261F920F920FB60F9294
:1030800011240BB60F922F933F934F935F936F933F
:103090007F938F939F93AF93BF93EF93FF938EE8AC
:1030A00095E00E949E06FF91EF91BF91AF919F9195
:1030B0008F917F916F915F914F913F912F910F90E1
:1030C0000BBE0F900FBE0F901F9018951F920F927E
:1030D0000FB60F9211240BB60F922F938F939F93DD
:1030E000EF93FF93E0919E05F0919F058081E09121
:1030F000A405F091A50582FD1DC090818091A705D2
:103100008F5F8F732091A805821741F0E091A7058A
:10311000F0E0E257FA4F958F8093A705FF91EF916A
:103120009F918F912F910F900BBE0F900FBE0F901C
:103130001F9018958081F2CF1F920F920FB60F92B9
:1031400011242F933F938F939F93AF93BF938091BD
:103150006A0590916B05A0916C05B0916D05309159
:10316000690523E0230F2D3758F50196A11DB11DE8
:103170002093690580936A0590936B05A0936C0575
:10318000B0936D0580916E0590916F05A0917005CB
:10319000B09171050196A11DB11D80936E059093AC
:1031A0006F05A0937005B0937105BF91AF919F918A
:1031B0008F913F912F910F900FBE0F901F901895F8
:1031C00026E8230F0296A11DB11DD2CF1F920F92A8
:1031D0000FB60F9211240F900FBE0F901F901895ED
:1031E0001F920F920FB60F9211240BB60F922F93CE
:1031F0003F934F935F936F937F938F939F93AF937F
:10320000BF93EF93FF938091B900887F803609F4D4
:103210004DC008F040C0883209F4A9C028F58031BB
:1032200009F49DC0C8F4882309F4FBC0883009F470
:1032300096C0FF91EF91BF91AF919F918F917F9138
:103240006F915F914F913F912F910F900BBE0F9017
:103250000FBE0F901F901895883109F488C08032F6
:1032600041F78093430514C0803409F49DC040F4B5
:103270008033B9F38833E9F68093430585ECB0C019
:10328000803509F485C0883509F496C0883489F6FC
:103290000E94F710CECF883909F48CC038F58837F2
:1032A00029F050F4883611F0803719F683E08093C6
:1032B00079051092420557C0883809F47BC08039DF
:1032C00019F0803809F0B5CF80914205803208F0BE
:1032D00071C0E091420581E08E0F8093420580919C
:1032E000BB00F0E0EE5DFA4F80833DC0803B39F0DB
:1032F000E0F4803A09F479C0883A09F09ACF84E082
:10330000809379051092210510922005E0917505B2
:10331000F091760519958091200581110FC081E00B
:10332000809320051092000509C0803C09F4A6CFC7
:10333000883C09F4A3CF883B09F07BCFE0912105BD
:1033400081E08E0F80932105F0E0E050FB4F8081FB
:103350008093BB00909121058091200529C0809128
:1033600066058093BB0085EC8093BC0062CF909192
:10337000650580916405981758F5E091650581E031
:103380008E0F80936505F0E0EC5BFA4F8081E9CF0A
:10339000E091650581E08E0F809365058091BB000B
:1033A000F0E0EC5BFA4F80839091650580916405B5
:1033B0009817C8F285E8D8CFE091650581E08E0FB7
:1033C000809365058091BB00F0E0EC5BFA4F808351
:1033D0008091780581115CCF81E08093770584EA44
:1033E0008093BC001092790524CF85EC8093BC00BB
:1033F0001092790580914205803230F4E0914205C7
:10340000F0E0EE5DFA4F10826091420570E0E091CD
:103410007305F091740582E295E0199510924205CA
:1034200008CF1092430534CFCF92DF92EF92FF92F4
:103430000F931F93E82FF92F05C00150110921099F
:10344000310961F1908196239417B9F305C00150B9
:1034500011092109310911F1908196239413F7CFB5
:10346000C12CD12CE12CF12C0AC08FEFC81AD80A3C
:10347000E80AF80A0C151D052E053F0579F0808134
:103480008623841791F36C2D7D2D8E2D9F2D1F91FA
:103490000F91FF90EF90DF90CF90089560E070E083
:1034A00080E090E01F910F91FF90EF90DF90CF9020
:1034B0000895EEE8F5E01382128248EE53E060E0F2
:1034C00070E044835583668377838EE092E0918336
:1034D000808385EC90E09587848784EC90E09787E3
:1034E000868780EC90E0918B808B81EC90E0938BD1
:1034F000828B82EC90E0958B848B86EC90E0978BAE
:10350000868B118E128E138E148EA5E8B6E013965C
:103510001C921E92129714964D935D936D937C931B
:10352000179780E292E011969C938E93E1E9F6E082
:103530001382128220E830E03583248380E290E019
:10354000978386833187208793878287168A15869B
:1035500014861786168681E0858B848B2FEF3FEFCC
:10356000338B228B318B208B878B108E128E118E9A
:1035700082E392E091838083148E138EB68FA58FA1
:1035800010A2178E8FEF84A385A386A387A380A79D
:1035900080E89AE1A6E0B0E085AB96ABA7ABB0AF10
:1035A00080EA96E8A1E0B0E081AF92AFA3AFB4AFFC
:1035B00080E586AF17AE6CE572E08FE796E021DD1F
:1035C00067ED72E089E796E01CDD6CED72E083E761
:1035D00096E017DD60EE72E08DE696E012DD6AE8B7
:1035E00072E087E696E00DDD68E672E081E696E03F
:1035F00008DD6CE672E08BE596E003DD60E672E0E4
:1036000085E596E0FEDC64E672E08FE496E0F9DCA6
:103610006DE572E089E496E0F4DC64EE72E083E448
:1036200096E0EFDC64EE72E08DE396E0EADC64EEB7
:1036300072E087E396E0E5DC64EE72E081E396E019
:10364000E0DC66EE72E08BE296E0DBCCCF93DF93BA
:1036500000D000D0CDB7DEB7789484B5826084BD49
:1036600084B5816084BD85B5826085BD85B5816086
:1036700085BD80916E00816080936E001092810004
:1036800080918100826080938100809181008160BF
:103690008093810080918000816080938000809180
:1036A000B10084608093B1008091B000816080930C
:1036B000B000809191008260809391008091910090
:1036C0008160809391008091900081608093900050
:1036D0008091A10082608093A1008091A10081600F
:1036E0008093A1008091A00081608093A0008091D0
:1036F000210182608093210180912101816080936A
:1037000021018091200181608093200180917A00C5
:10371000846080937A0080917A00826080937A003E
:1037200080917A00816080937A0080917A0080682D
:1037300080937A001092C100E0919E05F0919F0560
:1037400082E08083E0919A05F0919B051082E091E0
:103750009C05F0919D058FEC80831092A605E09169
:10376000A205F091A30586E08083E091A005F09189
:10377000A105808180618083E091A005F091A10581
:10378000808188608083E091A005F091A10580810F
:1037900080688083E091A005F091A10580818F7DF4
:1037A000808361E084E00E94170861E085E00E9468
:1037B000170861E086E00E94170861E087E00E9438
:1037C000170862E08DE00E94170862E08BE00E941B
:1037D000170862E08CE00E94170861E089E00E940F
:1037E000170860E088E00E94170861E083E00E940B
:1037F000170860E082E00E94170861E087E00E94FD
:10380000EA0761E086E00E94EA0761E085E00E9445
:10381000EA0761E084E00E94EA078091B006909197
:10382000B106892B09F18BD8209197063091980623
:103830008091950690919606213231050CF049C091
:10384000B9016052710977FF02C06F5F7F4F7595B4
:1038500067958357910997FD019600E210E023E7F1
:1038600030E040E856E048C0209197063091980635
:10387000C901079697FD0796B3E095958795BA9588
:10388000E1F72091950630919606AC01429FC00168
:10389000439F900D529F900D1124CDD79093B10668
:1038A0008093B006892B09F0BECF00E21BE0F8013F
:1038B0006491662341F08EE895E00E94C0060F5F98
:1038C0001F4F892BA1F76AE572E08EE895E098D842
:1038D000FFCFB9016054710977FF02C06F5F7F4F5E
:1038E000759567958255910997FD019600E410E062
:1038F00022E530E040E658E0959587950E94EB0F71
:1039000082E08093B3068091AE069091AF06892B3A
:1039100009F4A6C18CE38093B20610927B05109245
:103920007A0510928B0510928A051092790581E034
:10393000809378051092770561E084E10E94EA07A0
:1039400061E085E10E94EA078091B9008E7F809353
:10395000B9008091B9008D7F8093B90088E480938D
:10396000B80085E48093BC0088E296E090937605E9
:103970008093750589E296E09093740580937305B2
:103980008091B90687FD1EC061E00E94170861E0C2
:103990008091B9060E94EA0761E070E080E090E063
:1039A0000E94780860E08091B9060E94EA076AE008
:1039B00070E080E090E00E94780861E08091B906B4
:1039C0000E94EA078091AE069091AF06892B09F418
:1039D00006C22091C6063091C7064091C806509194
:1039E000C90660E074E284EF90E0CAD62051310944
:1039F0004109510956954795379527952093B80069
:103A000064E082E696E00E94081260919706615099
:103A100081E996E00E94BA1264E08EE596E00E9489
:103A200008128091B30664E1813009F460E181E914
:103A300096E00E94BA1264E08AE596E00E940812BD
:103A40008FE88093CE0680919506909196068038F7
:103A5000910509F0DDC18091970690919806803418
:103A6000910509F0E5C18091B306813009F4CEC11A
:103A70008FEC8093CE0612E16AED81E996E00E9418
:103A8000BA12612F81E996E00E94BA1261E881E9D9
:103A900096E00E94BA126091CE0681E996E00E94FB
:103AA000BA1269ED81E996E00E94BA128091B306DC
:103AB00061EF813009F462E281E996E00E94BA1276
:103AC00066E084E596E00E9408128091AE0690912F
:103AD000AF06892B09F4B0C12091CA063091CB06FC
:103AE0004091CC065091CD0660E074E284EF90E006
:103AF00047D62051310941095109569547953795C7
:103B000027952093B80088248394912CAFE02A2E27
:103B1000312C01E010E064EE72E081E396E07AD8A7
:103B200066EE72E08BE296E075D8109284051092F2
:103B3000850510928605109287051092880561E030
:103B40008AE00E94170860E08AE00E94EA0764E1C8
:103B500070E080E090E00E94780861E08AE00E94D6
:103B6000EA078BE990E00197F1F760E08AE00E94B4
:103B70001708E1E1EE2EE7E2FE2E8AE00E94C2077E
:103B8000892B09F063C1F1E0EF1AF108B1F76091F8
:103B9000800570918105809182059091830512D6F0
:103BA0006B0160917C0570917D0580917E059091FF
:103BB0007F0508D62B010E949F141093A406009342
:103BC000A3061093A2060093A10610939E060093ED
:103BD0009D061093A00600939F068BEE92E00E9434
:103BE0000F15C6010E948F158AEF92E00E940F15F3
:103BF000C2010E948F150E941A13B601CE010196D0
:103C00003ED8BE016F5F7F4F83E496E00E94A1150E
:103C1000CE0101960E94DA15B201CE0101962FD88D
:103C2000BE016F5F7F4F8DE396E00E94A115CE012C
:103C300001960E94DA15E9E1CE16D1040CF07CC1A0
:103C40001092890566E073E0CE010196DAD9CE01C3
:103C500001960E94BF14CE0101960E94DA1574C12C
:103C600061E08091B7060E94170861E08091B80674
:103C70000E9417088091B706082E000C990BFC01D2
:103C8000EC5AF44FE491F0E0EE0FFF1FEA59F94FC0
:103C9000259134913093BF062093BE06FC01E65671
:103CA000F44FE491E093C4068091B806082E000C0E
:103CB000990BFC01EC5AF44FE491F0E0EE0FFF1F7A
:103CC000EA59F94FA591B491B093C106A093C006EB
:103CD000FC01E656F44FE491E093C5068C91E82B85
:103CE000EC938091AC069091AD06892B09F434C019
:103CF0001FB7F89480917205811127C0E9E8FBE0B5
:103D00008491EFECFBE09491E82FF0E0EE0FFF1FC1
:103D1000E65CF94FA591B491EC91E92321F461E0BF
:103D200085E30E94EA0761E085E30E9417088CB5ED
:103D300080618CBD8CB580648CBD61E084E30E94A1
:103D4000170861E083E30E941708809172058F5F76
:103D5000809372051FBF14CE61E08091B5060E946A
:103D6000170861E08091B6060E9417088091B50699
:103D7000082E000C990BFC01EC5AF44FE491F0E092
:103D8000EE0FFF1FEA59F94F259134913093BB068E
:103D90002093BA06FC01E656F44FE491E093C20684
:103DA0008091B606082E000C990BFC01EC5AF44FDA
:103DB000E491F0E0EE0FFF1FEA59F94FA591B4919D
:103DC000B093BD06A093BC06FC01E656F44FE49107
:103DD000E093C3068C91E095E823EC93D1CD8091DC
:103DE000AC069091AD06892B31F08091CF06909171
:103DF000D0060E94030BE091C006F091C1069081AD
:103E00008091C506809589238083FACD8FE931CED4
:103E10008036910569F480919706909198064097B5
:103E200039F48091B306813029F08FEA8093CE0671
:103E300012E022CE80E1FACFE091C006F091C106F7
:103E400080819091C506892B80835DCE71E1E72E3C
:103E500077E2F72E8AE00E94C207019729F441E039
:103E6000E41AF108B9F793CE58E2C52ED12C67E0D9
:103E7000F62EE12C41E1A42E47E2B42E8AE00E9406
:103E8000C207892B29F451E0A51AB108B9F77FCEF2
:103E90000E9453082B013C0131E1A32E37E2B32EDF
:103EA0008AE00E94C207019729F481E0A81AB108AC
:103EB000B9F76DCE0E9453086419750986099709F0
:103EC000693271058105910570F0EE2DF0E0E4583E
:103ED000FA4F808521E030E00F2C01C0220F0A94B8
:103EE000EAF7822B8087F11025C0E39427E0F22EB9
:103EF00091E0C91AD10809F0BDCF6091840570E046
:103F000090E080E0BBD360937C0570937D05809347
:103F10007E0590937F056091860570E090E080E0DB
:103F2000ADD3609380057093810580938205909353
:103F300083052DCEFA94DCCFF3E3CF16D1040CF039
:103F40007FCE81E08093890568EE73E080E090E0A9
:103F50000E94780860E089E00E94EA0783E090E030
:103F60000197F1F761E089E00E94EA07C10101973A
:103F7000F1F760E089E00E94EA0788E00E94D91426
:103F80002AE330E040E050E0DFD369017A010E948B
:103F90009F141093A4060093A3061093A206009307
:103FA000A10610939E0600939D061093A006009311
:103FB0009F0689E393E00E940F15C701B6010E9496
:103FC00013156AE572E081E996E00E9400150E94EF
:103FD0001A13C114D104E104F10409F096C26BE490
:103FE00073E083E796E00E940A16109289056FE459
:103FF00073E0CE01019605D8CE0101960E94BF1450
:10400000CE0101960E94DA1562E873E083E796E03C
:104010000E940A1668EE73E080E090E00E94780843
:1040200060E083E00E94EA0783E090E00197F1F707
:1040300061E083E00E94EA07C1010197F1F760E0C7
:1040400083E00E94EA0782E00E94D9142AE330E06C
:1040500040E050E079D369017A010E949F141093E7
:10406000A4060093A3061093A2060093A106109342
:104070009E0600939D061093A00600939F0686E877
:1040800093E00E940F15C701B6010E9413156AE55F
:1040900072E081E996E00E9400150E941A13C11493
:1040A000D104E104F10409F04EC267E973E08DE642
:1040B00096E00E940A16109289056BE973E0CE0122
:1040C00001960E940118CE0101960E94BF14CE01F4
:1040D00001960E94DA156DEC73E08DE696E00E9481
:1040E0000A1668EE73E080E090E00E947808809104
:1040F0008905882309F419CD61ED73E0CE0101969D
:104100000E940118CE0101960E94BF14CE010196B3
:104110000E94DA1565EE73E087E396E00E940A16C6
:104120008CE00E94C207892B09F442C160E087E05D
:104130000E94EA0761E086E00E94EA0763E872E015
:1041400089E496E00E940A1660EA72E081E696E051
:104150000E940A166CE672E08BE596E00E940A1651
:104160006AE872E087E696E00E940A1694E6E92E75
:10417000F12C8CE00E94C207892B09F0DAC061E0C3
:1041800087E00E94EA0761E086E00E94EA076DE5A9
:1041900072E089E496E00E940A1668E672E081E621
:1041A00096E00E940A166CE672E08BE596E00E94AB
:1041B0000A1660E772E087E696E00E940A166DEF45
:1041C00073E087E396E00E940A1661E274E0CE0194
:1041D00001960E940118CE0101960E94BF14CE01E3
:1041E00001960E94DA1568EE73E080E090E00E948C
:1041F000780890920302809202020E94731760E393
:1042000074E087E396E00E940A160E949F14909241
:10421000A4068092A3069092A2068092A10687E44B
:1042200094E00E940F1581E090E00E948F150E949B
:104230001A1361E270E0CE0101960E943F16BE01A2
:104240006F5F7F4F81E396E00E94A115CE0101963A
:104250000E94DA1568EE73E080E090E00E94780832
:10426000909203028092020261E084E00E94EA07D9
:104270008091020290910302039709F4C3C061E0A8
:1042800084E00E94EA0760E085E00E94EA0760E6B9
:1042900072E085E596E00E940A1669E574E08FE415
:1042A00096E00E940A166DE574E087E396E00E94AE
:1042B0000A160E94FE168DE00E94C207892BC1F6E5
:1042C0008DE00E94C207892BD9F31093030200935B
:1042D00002028BE00E94C207892B09F080C08BE0AC
:1042E0000E94C207892B09F066C08BE00E94C207BA
:1042F000892BD9F382E090E090930302809302022D
:104300008CE00E94C207892B09F455C060E085E06B
:104310000E94EA0760E672E085E596E00E940A16D0
:1043200069E574E08FE496E00E940A160E94FE168A
:10433000E7CF64E670E080E090E00E94780841E01A
:10434000E41AF10809F015CF61E087E00E94EA075E
:1043500060E086E00E94EA0763E872E089E496E0A4
:104360000E940A1668E672E081E696E00E940A164C
:1043700066E872E08BE596E00E940A166AE872E051
:1043800087E696E00E940A1684E6E82EF12C8CE07F
:104390000E94C207892B09F4F2CE64E670E080E047
:1043A00090E00E94780851E0E51AF10881F7B2CE5A
:1043B0006EE074E006CF8CE00E94C207892B09F002
:1043C00057CF8CE00E94C207892BD9F3E3E0F0E0DD
:1043D000F0930302E09302020E946A1649CF60E064
:1043E00085E00E94EA0760E672E085E596E00E94BB
:1043F0000A1669E574E08FE496E00E940A160E94AE
:10440000BE1667CF69E774E087E396E00E940A165C
:104410000E949F149092A4068092A3069092A206F6
:104420008092A10689E894E00E940F1581E090E057
:104430000E948F150E941A1362E470E0CE0101966B
:104440000E943F16BE016F5F7F4F81E396E00E949E
:10445000A115CE0101960E94DA1568EE73E080E0A6
:1044600090E00E94780890920302809202020E94DB
:1044700073176AE974E087E396E00E940A160E94C7
:104480009F149092A4068092A3069092A206809216
:10449000A10687E494E00E940F1581E090E00E945D
:1044A0008F150E941A1363E670E0CE0101960E94F8
:1044B0003F16BE016F5F7F4F81E396E00E94A1151A
:1044C000CE0101960E94DA150E949F149092A406D4
:1044D0008092A3069092A2068092A10682EB94E0BD
:1044E0000E940F150E941A1367EE72E08BE296E0AD
:1044F0000E940A1668EE73E080E090E00E9478085F
:10450000109289050E942B0706CBF7E9CF16D1043C
:10451000E104F1040CF478CD6CED72E083E796E0F1
:104520000E940A16109289056FE473E0CE0101968D
:104530000E940118CE0101960E94BF14CE0101967F
:104540000E94DA1567CD47E9C416D104E104F104ED
:104550000CF4C1CD60EE72E08DE696E00E940A1682
:10456000109289056BE973E0CE0101960E94011853
:10457000CE0101960E94BF14CE0101960E94DA1569
:10458000B0CD8BE296E00E94DA1581E396E00E94BE
:10459000DA1587E396E00E94DA158DE396E00E9433
:1045A000DA1583E496E00E94DA1589E496E00E9429
:1045B000DA158FE496E00E94DA1585E596E00E9410
:1045C000DA158BE596E00E94DA1581E696E00E9406
:1045D000DA1587E696E00E94DA158DE696E00E94ED
:1045E000DA1583E796E00E94DA1589E796E00E94E3
:1045F000DA158FE796E00E94DA1582E392E0909355
:104600009206809391068091B0069091B106009732
:1046100009F0ADC10895BB274A3031F4992322F443
:10462000BDE2909581959F4F01C0BB27FB015527A7
:10463000AA27880F991FAA1FA41710F0A41B8395FF
:104640005051B9F7A05DAA3308F0A95DA193009776
:1046500079F7B111B1931192CB0100C0DC01FC01DB
:10466000672F71917723E1F7329704C07C916D93A6
:1046700070836291AE17BF07C8F30895E89409C02C
:1046800097FB3EF490958095709561957F4F8F4F85
:104690009F4F9923A9F0F92F96E9BB279395F6959B
:1046A000879577956795B795F111F8CFFAF4BB0F19
:1046B00011F460FF1BC06F5F7F4F8F4F9F4F16C07D
:1046C000882311F096E911C0772321F09EE8872F07
:1046D000762F05C0662371F096E8862F70E060E0C3
:1046E0002AF09A95660F771F881FDAF7880F96953C
:1046F000879597F9089557FD9058440F551F59F025
:104700005F3F71F04795880F97FB991F61F09F3FBE
:1047100079F087950895121613061406551FF2CFE7
:104720004695F1DF08C0161617061806991FF1CF37
:1047300086957105610508940895E894BB2766275E
:104740007727CB0197F90895052E97FB16F400946F
:104750000FD057FD05D014D007FC02D046F408C096
:1047600050954095309521953F4F4F4F5F4F08959D
:1047700090958095709561957F4F8F4F9F4F0895CD
:10478000A1E21A2EAA1BBB1BFD010DC0AA1FBB1F55
:10479000EE1FFF1FA217B307E407F50720F0A21BC7
:1047A000B30BE40BF50B661F771F881F991F1A9434
:1047B00069F760957095809590959B01AC01BD015E
:1047C000CF01089504D06894B111B8CF08959BDF4C
:1047D00088F09F5790F0B92F9927B751A0F0D1F0EA
:1047E000660F771F881F991F1AF0BA95C9F712C074
:1047F000B13081F0A2DFB1E008959FCF672F782F0D
:104800008827B85F39F0B93FCCF3869577956795DF
:10481000B395D9F73EF490958095709561957F4F4B
:104820008F4F9F4F0895EE0FFF1F881F8BBF07907C
:10483000F691E02D19940F931F93CF93DF9382305D
:10484000910510F482E090E0E091D306F091D40657
:1048500030E020E0B0E0A0E0309799F42115310578
:1048600009F44AC0281B390B24303105D8F58A8158
:104870009B816115710589F1FB0193838283FE01A0
:1048800011C0408151810281138148175907E0F01E
:104890004817590799F4109761F012960C931297E4
:1048A00013961C933296CF01DF91CF911F910F91F8
:1048B00008950093D3061093D406F4CF2115310543
:1048C00051F04217530738F0A901DB019A01BD01ED
:1048D000DF01F801C1CFEF01F9CF9093D4068093A7
:1048E000D306CDCFFE01E20FF31F819391932250A7
:1048F000310939832883D7CF2091D1063091D20650
:10490000232B41F420910602309107023093D20606
:104910002093D10620910402309105022115310522
:1049200041F42DB73EB74091080250910902241B73
:10493000350BE091D106F091D206E217F307A0F40F
:104940002E1B3F0B2817390778F0AC014E5F5F4FE5
:104950002417350748F04E0F5F1F5093D20640933F
:10496000D106819391939FCFF0E0E0E09CCFCF936D
:10497000DF930097E9F0FC01329713821282A09135
:10498000D306B091D406ED0130E020E01097A1F4F9
:1049900020813181820F931F2091D1063091D20660
:1049A0002817390709F061C0F093D206E093D106C9
:1049B000DF91CF910895EA01CE17DF07E8F54A812C
:1049C0005B819E0141155105B1F7E901FB83EA8343
:1049D00049915991C40FD51FEC17FD0761F48081EF
:1049E00091810296840F951FE901998388838281C2
:1049F00093819B838A83F0E0E0E012968D919C91F5
:104A000013970097B9F52D913C911197CD0102961E
:104A1000820F931F2091D1063091D20628173907B3
:104A200039F6309751F51092D4061092D306B09310
:104A3000D206A093D106BCCFD383C28340815181DB
:104A4000840F951FC817D90761F44E5F5F4F8881A7
:104A50009981480F591F518340838A819B81938399
:104A600082832115310509F0B0CFF093D406E0938D
:104A7000D3069ECFFD01DC01C0CF13821282D7CFB7
:104A80004F925F926F927F928F929F92AF92BF925E
:104A9000CF92DF92EF92FF920F931F93CF93DF930A
:104AA0008C01009791F4CB01DF91CF911F910F9171
:104AB000FF90EF90DF90CF90BF90AF909F908F903E
:104AC0007F906F905F904F90B6CEFC01E60FF71F7E
:104AD0009C0122503109E217F30708F4AAC0D9015A
:104AE000CD91DC911197C617D70718F1C530D105C4
:104AF00070F0CE0104978617970748F0C61BD70BB6
:104B00002297C193D1936D937C93CF0130DFC8017D
:104B1000DF91CF911F910F91FF90EF90DF90CF9099
:104B2000BF90AF909F908F907F906F905F904F90CD
:104B300008955B01AC1ABD0A4C018C0E9D1EA0911C
:104B4000D306B091D406512C412CF12CE12C1097B6
:104B500031F58091D1069091D2068815990509F01A
:104B60005CC04616570608F058C080910402909128
:104B70000502009741F48DB79EB74091080250910D
:104B80000902841B950BE817F90708F052C0F0934F
:104B9000D206E093D106F90171836083B8CF8D917D
:104BA0009C91119712966C90129713967C90139784
:104BB000A815B90559F56C0142E0C40ED11CCA1400
:104BC000DB0420F1AC014A195B09DA011296159752
:104BD00080F06282738251834083D9016D937C930C
:104BE000E114F10471F0D7011396FC93EE93129740
:104BF0008ECF22968C0F9D1FF90191838083F30144
:104C0000EFCFF093D406E093D30681CF4816590630
:104C100008F42C017D01D3019ACFCB010CDE7C017D
:104C2000009739F0AE01B8010BD0C801A0DE8701B2
:104C30006ECF10E000E06BCF81E090E0F89417C0F9
:104C4000FB01DC0102C001900D9241505040D8F7A9
:104C50000895DC0101C06D9341505040E0F7089584
:104C6000FB01DC0101900D920020E1F7089515E0B1
:104C7000C4EFD5E000E005C0802FFE01D4DD219611
:104C8000011DC53FD10780E00807B1F7F894FFCFB9
:104C9000010001000000D506800000000000C006F1
:104CA0002B0658060C07890667067B0600000000E5
:104CB0007D1151119C1427064A113711281100004B
:104CC0000000410D2B069C142A064C0A2706E40F0F
:104CD000BC0FD80FCC0F4B102706070B4714C00989
:104CE000070A050FE80E700E110E0D0A004D460062
:104CF00057504600535046004E5346004E53520004
:104D000053534800496E7665727465722053746F10
:104D1000700A004D4F00535352004E534800496EE5
:104D200076657274657220526576657273650A00E5
:104D300053534600496E76657274657220466F72F1
:104D4000776172640A0057504F0057617465722092
:104D500057617368204379636C6520696E205072D7
:104D60006F6772657373006E696C6C00574C4C0012
:104D7000534C4C0030004E46494E0054656D7065F2
:104D8000726174757265203D200048756D696469B3
:104D90007479203D200063616E6E6F7420737461BE
:104DA00072742C206F7074696D616C2074656D6510
:104DB0007072617475726520636F6E646974696F77
:104DC0006E73206661696C73005761746572204C64
:104DD0006576656C28636D293D2000574C4600635D
:104DE000616E6E6F742073746172742C206F7074B6
:104DF000696D616C207761746572206C6576656C95
:104E000020636F6E646974696F6E73206661696C8C
:104E10007300574C4800536F6170204C6576656C89
:104E200028636D293D2000534C460063616E6E6F10
:104E3000742073746172742C206F7074696D616C6E
:104E400020736F6170206C6576656C20636F6E6493
:104E50006974696F6E73206661696C7300534C48A6
:104E60000053797374656D2066696E64696E67209E
:104E7000686F6D650053797374656D2066696E6443
:104E8000696E6720686F6D652021212100486F6D74
:104E90006520526561636865642021212100537992
:104EA0007374656D20617420686F6D652021212108
:104EB0000053797374656D20617420686F6D6500AF
:104EC0004669727374205761746572205370726101
:104ED0007920646F6E650057617465722043796351
:104EE0006C6520446F6E653D0053504F00536F61F9
:104EF000702057617368204379636C6520696E2068
:104F000050726F677265737300536F6170205370D6
:104F100072617920646F6E6500536F617020437910
:104F2000636C6520446F6E653D005365636F6E640E
:104F300020576174657220537072617920646F6EBE
:104F4000650043617220576173686564210A00003F
:00000001FF
